{
  "_format": "hh-sol-artifact-1",
  "contractName": "FreelanceJob",
  "sourceName": "contracts/FreelanceJob.sol",
  "abi": [
    {
      "inputs": [
        {
          "internalType": "address",
          "name": "_freelancer",
          "type": "address"
        }
      ],
      "stateMutability": "payable",
      "type": "constructor"
    },
    {
      "inputs": [],
      "name": "amount",
      "outputs": [
        {
          "internalType": "uint256",
          "name": "",
          "type": "uint256"
        }
      ],
      "stateMutability": "view",
      "type": "function"
    },
    {
      "inputs": [],
      "name": "client",
      "outputs": [
        {
          "internalType": "address",
          "name": "",
          "type": "address"
        }
      ],
      "stateMutability": "view",
      "type": "function"
    },
    {
      "inputs": [],
      "name": "freelancer",
      "outputs": [
        {
          "internalType": "address",
          "name": "",
          "type": "address"
        }
      ],
      "stateMutability": "view",
      "type": "function"
    },
    {
      "inputs": [],
      "name": "jobCompleted",
      "outputs": [
        {
          "internalType": "bool",
          "name": "",
          "type": "bool"
        }
      ],
      "stateMutability": "view",
      "type": "function"
    },
    {
      "inputs": [],
      "name": "markJobDone",
      "outputs": [],
      "stateMutability": "nonpayable",
      "type": "function"
    }
  ],
  "bytecode": "0x608060405260405161061f38038061061f83398181016040528101906100259190610131565b336000806101000a81548173ffffffffffffffffffffffffffffffffffffffff021916908373ffffffffffffffffffffffffffffffffffffffff16021790555080600160006101000a81548173ffffffffffffffffffffffffffffffffffffffff021916908373ffffffffffffffffffffffffffffffffffffffff160217905550346002819055506000600360006101000a81548160ff0219169083151502179055505061015e565b600080fd5b600073ffffffffffffffffffffffffffffffffffffffff82169050919050565b60006100fe826100d3565b9050919050565b61010e816100f3565b811461011957600080fd5b50565b60008151905061012b81610105565b92915050565b600060208284031215610147576101466100ce565b5b60006101558482850161011c565b91505092915050565b6104b28061016d6000396000f3fe608060405234801561001057600080fd5b50600436106100575760003560e01c8063109e94cf1461005c578063a37dda2c1461007a578063a552386b14610098578063aa8c217c146100b6578063efa57cdf146100d4575b600080fd5b6100646100de565b60405161007191906102e8565b60405180910390f35b610082610102565b60405161008f91906102e8565b60405180910390f35b6100a0610128565b6040516100ad919061031e565b60405180910390f35b6100be61013b565b6040516100cb9190610352565b60405180910390f35b6100dc610141565b005b60008054906101000a900473ffffffffffffffffffffffffffffffffffffffff1681565b600160009054906101000a900473ffffffffffffffffffffffffffffffffffffffff1681565b600360009054906101000a900460ff1681565b60025481565b60008054906101000a900473ffffffffffffffffffffffffffffffffffffffff1673ffffffffffffffffffffffffffffffffffffffff163373ffffffffffffffffffffffffffffffffffffffff16146101cf576040517f08c379a00000000000000000000000000000000000000000000000000000000081526004016101c6906103f0565b60405180910390fd5b600360009054906101000a900460ff161561021f576040517f08c379a00000000000000000000000000000000000000000000000000000000081526004016102169061045c565b60405180910390fd5b6001600360006101000a81548160ff021916908315150217905550600160009054906101000a900473ffffffffffffffffffffffffffffffffffffffff1673ffffffffffffffffffffffffffffffffffffffff166108fc6002549081150290604051600060405180830381858888f193505050501580156102a4573d6000803e3d6000fd5b50565b600073ffffffffffffffffffffffffffffffffffffffff82169050919050565b60006102d2826102a7565b9050919050565b6102e2816102c7565b82525050565b60006020820190506102fd60008301846102d9565b92915050565b60008115159050919050565b61031881610303565b82525050565b6000602082019050610333600083018461030f565b92915050565b6000819050919050565b61034c81610339565b82525050565b60006020820190506103676000830184610343565b92915050565b600082825260208201905092915050565b7f4f6e6c7920636c69656e742063616e20636f6e6669726d20636f6d706c65746960008201527f6f6e000000000000000000000000000000000000000000000000000000000000602082015250565b60006103da60228361036d565b91506103e58261037e565b604082019050919050565b60006020820190508181036000830152610409816103cd565b9050919050565b7f4a6f6220616c726561647920636f6d706c657465640000000000000000000000600082015250565b600061044660158361036d565b915061045182610410565b602082019050919050565b6000602082019050818103600083015261047581610439565b905091905056fea26469706673582212209b3d538954f26ed548b42796d7182c50d9670503cceac97bfdc889c6bf03ecf264736f6c634300081c0033",
  "linkReferences": {},
  "deployedLinkReferences": {}
}